:100000000C942A000C9447000C9447000C94470071
:100010000C9447000C9447000C9447000C94470044
:100020000C9447000C9447000C9447000C94470034
:100030000C9447000C9447000C9447000C94470024
:100040000C9447000C9447000C9447000C94470014
:100050000C94470011241FBECFE5D4E0DEBFCDBF16
:1000600010E0A0E6B0E0E4EFFFE002C005900D92E2
:10007000A437B107D9F720E0A4E7B0E001C01D9292
:10008000A038B207E1F70E943E020C94F8070C94E6
:1000900000009F938F937F936F9380E690E09F93F0
:1000A0008F935F934F930E940E058DB79EB708966E
:1000B0000FB6F8949EBF0FBE8DBF089595B39F7085
:1000C000282F207F922B95BBA998AA98AB9A32E053
:1000D0003A95F1F700C0AB9895E39A95F1F70000D7
:1000E00025B32F7030E1839FC0011124822B85BB83
:1000F000AB9A82E08A95F1F700C0AB9895E09A95AB
:10010000F1F70000089595B39F70282F207F922B60
:1001100095BBA99AAA98AB9A32E03A95F1F700C03C
:10012000AB9895E39A95F1F7000025B32F7030E175
:10013000839FC0011124822B85BBAB9A82E08A95F4
:10014000F1F700C0AB9895E09A95F1F7000008959B
:1001500084B3806F84BB84B38E6084BB2FE788E355
:1001600091E0215080409040E1F700C0000083E31F
:100170000E945E0082E30E945E0088E20E945E00B0
:100180008CE00E945E0086E00E945E0081E00E949A
:100190005E008FE99FE00197F1F700C0000008952D
:1001A000CF93DF93EC018881882331F021960E9460
:1001B000830089918111FBCFDF91CF910895CF9377
:1001C000DF9300D0CDB7DEB790E8998390EC9A83A7
:1001D000FE01E60FF11D9181890F0E945E000F90D4
:1001E0000F90DF91CF910895BC0180E090E00E94D4
:1001F000C20320E030E849EF53E40E94A80220E067
:1002000030E043E054E40E941A0320E030E044E38D
:1002100052E40E9479049B01AC0160E070E0CB01E4
:100220000E94A8020895BC0180E090E00E94C203F1
:1002300020E030E440E054E40E94A80220E030E0F6
:100240004FEF53E40E941A0320E030E044E352E40D
:100250000E9479049B01AC0160E070E0CB010E9438
:10026000A80208958F929F92AF92BF92CF92DF9291
:10027000EF92FF92CF93DF93CDB7DEB76E970FB6B5
:10028000F894DEBF0FBECDBF60E080E00E94DF00CB
:1002900084E690E00E94D00060E086E00E94DF00EB
:1002A00083B524E6829FC00111246FEF70E00E94A5
:1002B000E6047B01072E000C880B990BAE014F5F03
:1002C0005F4F0E944900CE0101960E94D00084E653
:1002D000E816F10444F460E088E00E94DF008EE656
:1002E00090E00E94D0002AE0E216F10444F460E0BD
:1002F00087E00E94DF008EE690E00E94D00060E080
:1003000089E00E94DF008AE690E00E94D0008091A0
:100310007400909175000E94F4004B015C01809183
:100320007600909177000E9413016B017C0161E0DF
:1003300080E00E94DF008CE690E00E94D000C501C2
:10034000B4010E948C03AE01455F5F4F0E944900DB
:10035000CE010B960E94D00020E030E040E251E454
:10036000C501B4010E941503882394F420E030E015
:1003700040E85FEBC501B4010E947404181644F410
:1003800061E084E00E94DF008EE690E00E94D000F1
:1003900020E030E040E251ECC501B4010E94740459
:1003A000181644F461E085E00E94DF008EE690E0DC
:1003B0000E94D00061E088E00E94DF0080E790E0CA
:1003C0000E94D000C701B6010E948C03AE014B5EB3
:1003D0005F4F0E944900CE0145960E94D00020E068
:1003E00030E040E251E4C701B6010E9415038823C2
:1003F00094F420E030E040E85FEBC701B6010E94D2
:100400007404181644F461E08CE00E94DF008EE66C
:1004100090E00E94D00020E030E040E251ECC701C3
:10042000B6010E947404181644F461E08DE00E9445
:10043000DF008EE690E00E94D0006E960FB6F89432
:10044000DEBF0FBECDBFDF91CF91FF90EF90DF9069
:10045000CF90BF90AF909F908F9008951ABA87E881
:1004600086B980E487B908958770806487B9369A21
:10047000349BFECF349A84B195B108950E942E0228
:100480008F9A8C9A8D9A1DBC1CBC88E391E097BD15
:1004900086BD82EA8FBD8BE18EBD8AE685BD0E9456
:1004A000A800CFEFD3E00E94320180E00E94340226
:1004B000909375008093740081E00E9434029093C1
:1004C00077008093760080E00E943402BE01681BB2
:1004D000790B072E000C880B990B0E94C4032AE9A4
:1004E00039E942E852E40E941A0320E030E04AE78A
:1004F00051E40E94A9020E9493037BBD6ABD81E082
:100500000E943402BC01990F880B990B0E94C4030E
:100510002AE939E942E852E40E941A0320E030E077
:100520004AE751E40E94A9020E94930379BD68BD85
:1005300082E00E9434029E01281B390BC9019923D5
:100540000CF40396959587959595879583BDABCFCC
:100550005058BB27AA270E94C0020C943A040E945C
:100560002C0438F00E94330420F039F49F3F19F432
:1005700026F40C9429040EF4E095E7FB0C94230474
:10058000E92F0E944B0458F3BA17620773078407D8
:10059000950720F079F4A6F50C946D040EF4E0951F
:1005A0000B2EBA2FA02D0B01B90190010C01CA012D
:1005B000A0011124FF27591B99F0593F50F4503ED8
:1005C00068F11A16F040A22F232F342F4427585FCA
:1005D000F3CF469537952795A795F0405395C9F7E2
:1005E0007EF41F16BA0B620B730B840BBAF091509A
:1005F000A1F0FF0FBB1F661F771F881FC2F70EC039
:10060000BA0F621F731F841F48F48795779567950B
:10061000B795F7959E3F08F0B0CF9395880F08F0F7
:100620009927EE0F9795879508950E94FF0308F488
:1006300081E008950E942E030C943A040E94330432
:1006400058F00E942C0440F029F45F3F29F00C94EC
:10065000230451110C946E040C9429040E944B0441
:1006600068F39923B1F3552391F3951B550BBB27E1
:10067000AA2762177307840738F09F5F5F4F220F26
:10068000331F441FAA1FA9F335D00E2E3AF0E0E81D
:1006900032D091505040E695001CCAF72BD0FE2F67
:1006A00029D0660F771F881FBB1F261737074807FB
:1006B000AB07B0E809F0BB0B802DBF01FF279358B3
:1006C0005F4F3AF09E3F510578F00C9423040C9450
:1006D0006E045F3FE4F3983ED4F386957795679573
:1006E000B795F7959F5FC9F7880F911D96958795E8
:1006F00097F90895E1E0660F771F881FBB1F621707
:1007000073078407BA0720F0621B730B840BBA0BC4
:10071000EE1F88F7E09508950E9493036894B11145
:100720000C946E0408950E94530488F09F5798F02B
:10073000B92F9927B751B0F0E1F0660F771F881FE6
:10074000991F1AF0BA95C9F714C0B13091F00E9400
:100750006D04B1E008950C946D04672F782F8827FD
:10076000B85F39F0B93FCCF3869577956795B39527
:10077000D9F73EF490958095709561957F4F8F4F96
:100780009F4F0895E89409C097FB3EF4909580959B
:10079000709561957F4F8F4F9F4F9923A9F0F92F47
:1007A00096E9BB279395F695879577956795B795C5
:1007B000F111F8CFFAF4BB0F11F460FF1BC06F5FAB
:1007C0007F4F8F4F9F4F16C0882311F096E911C0BD
:1007D000772321F09EE8872F762F05C0662371F0DE
:1007E00096E8862F70E060E02AF09A95660F771FF2
:1007F000881FDAF7880F9695879597F90895990FCE
:100800000008550FAA0BE0E8FEEF16161706E807DA
:10081000F907C0F012161306E407F50798F0621BFB
:10082000730B840B950B39F40A2661F0232B242BD0
:10083000252B21F408950A2609F4A140A6958FEFEF
:10084000811D811D089597F99F6780E870E060E041
:1008500008959FEF80EC089500240A941616170659
:1008600018060906089500240A94121613061406A1
:1008700005060895092E0394000C11F4882352F004
:10088000BB0F40F4BF2B11F460FF04C06F5F7F4FBC
:100890008F4F9F4F089557FD9058440F551F59F0A3
:1008A0005F3F71F04795880F97FB991F61F09F3F5D
:1008B00079F087950895121613061406551FF2CF86
:1008C0004695F1DF08C0161617061806991FF1CFD6
:1008D00086957105610508940895E894BB276627FD
:1008E0007727CB0197F908950E94FF0308F48FEF53
:1008F00008950E948C040C943A040E942C0438F051
:100900000E94330420F0952311F00C9423040C94DE
:10091000290411240C946E040E944B0470F3959FDB
:10092000C1F3950F50E0551F629FF001729FBB27E6
:10093000F00DB11D639FAA27F00DB11DAA1F649F82
:100940006627B00DA11D661F829F2227B00DA11D35
:10095000621F739FB00DA11D621F839FA00D611DBB
:10096000221F749F3327A00D611D231F849F600DDC
:10097000211D822F762F6A2F11249F5750409AF005
:10098000F1F088234AF0EE0FFF1FBB1F661F771F91
:10099000881F91505040A9F79E3F510580F00C945C
:1009A00023040C946E045F3FE4F3983ED4F38695E1
:1009B00077956795B795F795E7959F5FC1F7FE2BFC
:1009C000880F911D9695879597F9089597FB072EA7
:1009D00016F4009407D077FD09D00E94FA0407FCB2
:1009E00005D03EF4909581959F4F0895709561953F
:1009F0007F4F0895AA1BBB1B51E107C0AA1FBB1F55
:100A0000A617B70710F0A61BB70B881F991F5A959A
:100A1000A9F780959095BC01CD010895AEE0B0E0B6
:100A2000E4E1F5E00C94CF070D891E8986E08C8304
:100A30001A8309838FEF9FE79E838D83AE01475E04
:100A40005F4F6F89788DCE0101960E943005EF814E
:100A5000F885E00FF11F10822E96E4E00C94EB076E
:100A6000ABE0B0E0E6E3F5E00C94C1076C017B017C
:100A70008A01FC0117821682838181FFCCC1CE01DD
:100A800001963C01F6019381F70193FD859193FF57
:100A900081917F01882309F4BAC1853239F493FD2D
:100AA000859193FF81917F01853229F4B60190E011
:100AB0000E942707E7CF912C212C312CFFE1F31561
:100AC000D8F08B3279F038F4803279F08332A1F4A7
:100AD000232D20611DC08D3261F0803369F4232DF8
:100AE000216016C0832D8260382EE32DE4603E2EF7
:100AF0002AC0F32DF8601DC037FC2DC020ED280F53
:100B00002A3040F08E32B9F436FC81C1232D2064A6
:100B1000322E19C036FE06C08AE0989E200D1124A0
:100B2000922E11C0EAE02E9E200D1124222EF32DCC
:100B3000F0623F2E08C08C3621F4832D8068382E59
:100B400002C0883641F4F70193FD859193FF8191AE
:100B50007F018111B3CF982F9F7D9554933028F456
:100B60000C5F1F4F9FE399830DC0833631F08337AD
:100B700071F0833509F059C021C0F8018081898363
:100B80000E5F1F4F88248394912C530113C02801BA
:100B9000F2E04F0E511CF801A080B18036FE03C078
:100BA000692D70E002C06FEF7FEFC5010E941C0746
:100BB0004C018201F32DFF773F2E16C0280122E061
:100BC000420E511CF801A080B18036FE03C0692D91
:100BD00070E002C06FEF7FEFC5010E9411074C016A
:100BE000F32DF0683F2E820133FC1BC0822D90E074
:100BF00088169906B0F4B60180E290E00E942707BB
:100C00002A94F4CFF50137FC859137FE81915F017D
:100C1000B60190E00E94270721102A9421E0821A51
:100C200091088114910471F7E8C0843611F0893677
:100C300041F5F80137FE07C060817181828193819F
:100C40000C5F1F4F08C060817181072E000C880B5C
:100C5000990B0E5F1F4FF32DFF763F2E97FF09C0B4
:100C600090958095709561957F4F8F4F9F4FF0685D
:100C70003F2E2AE030E0A3010E946307882E8618E9
:100C800045C0853731F4232D2F7EB22E2AE030E087
:100C900025C0932D997FB92E8F36C1F018F4883571
:100CA00079F0B5C0803719F0883721F0B0C0E92F4E
:100CB000E061BE2EB4FE0DC0FB2DF460BF2E09C056
:100CC00034FE0AC0292F2660B22E06C028E030E08C
:100CD00005C020E130E002C020E132E0F801B7FEBB
:100CE00007C060817181828193810C5F1F4F06C0B4
:100CF0006081718180E090E00E5F1F4FA3010E9430
:100D00006307882E8618FB2DFF773F2E36FE0DC019
:100D1000232D2E7FA22E891458F434FE0BC032FCF2
:100D200009C0832D8E7EA82E05C0B82CA32C03C02D
:100D3000B82C01C0B92CA4FE0FC0FE01E80DF11DB6
:100D40008081803321F49A2D997EA92E09C0A2FEBC
:100D500006C0B394B39404C08A2D867809F0B39486
:100D6000A3FC11C0A0FE06C0B21488F4280C922C7B
:100D70009B180EC0B21460F4B60180E290E00E94AD
:100D80002707B394F7CFB21418F42B1802C0982C8D
:100D9000212CA4FE10C0B60180E390E00E9427073A
:100DA000A2FE17C0A1FC03C088E790E002C088E55E
:100DB00090E0B6010CC08A2D867859F0A1FE02C0E1
:100DC0008BE201C080E2A7FC8DE2B60190E00E94B8
:100DD0002707891438F4B60180E390E00E942707C2
:100DE0009A94F7CF8A94F301E80DF11D8081B60142
:100DF00090E00E9427078110F5CF222009F442CE0F
:100E0000B60180E290E00E9427072A94F6CFF6010F
:100E10008681978102C08FEF9FEF2B96E2E10C94C1
:100E2000DD07FC010590615070400110D8F78095F6
:100E300090958E0F9F1F0895FC01615070400190A6
:100E40000110D8F7809590958E0F9F1F08950F93EE
:100E50001F93CF93DF93FB01238121FD03C08FEF0D
:100E60009FEF2CC022FF16C0468157812481358117
:100E70004217530744F4A081B1819D012F5F3F4F7A
:100E8000318320838C93268137812F5F3F4F3783B7
:100E9000268314C08B01EC01FB010084F185E02D59
:100EA0000995892BE1F6D80116968D919C9117979B
:100EB000019617969C938E931697CE01DF91CF9152
:100EC0001F910F910895FA01AA27283051F120317E
:100ED00081F1E8946F936E7F6E5F7F4F8F4F9F4FCE
:100EE000AF4FB1E03ED0B4E03CD0670F781F891F10
:100EF0009A1FA11D680F791F8A1F911DA11D6A0FDE
:100F0000711D811D911DA11D20D009F468943F9190
:100F10002AE0269F11243019305D3193DEF6CF018F
:100F20000895462F4770405D4193B3E00FD0C9F755
:100F3000F6CF462F4F70405D4A3318F0495D31FDC2
:100F40004052419302D0A9F7EACFB4E0A695979515
:100F5000879577956795BA95C9F7009761057105EB
:100F600008959B01AC010A2E069457954795379535
:100F70002795BA95C9F7620F731F841F951FA01D8F
:100F800008952F923F924F925F926F927F928F922D
:100F90009F92AF92BF92CF92DF92EF92FF920F9308
:100FA0001F93CF93DF93CDB7DEB7CA1BDB0B0FB612
:100FB000F894DEBF0FBECDBF09942A8839884888CF
:100FC0005F846E847D848C849B84AA84B984C88465
:100FD000DF80EE80FD800C811B81AA81B981CE0F5C
:100FE000D11D0FB6F894DEBF0FBECDBFED01089541
:040FF000F894FFCFA3
:100FF400256C64005370656564002500583A200030
:04100400593A200035
:00000001FF
